{
  "_format": "hh-sol-artifact-1",
  "contractName": "Marketplace",
  "sourceName": "contracts/Marketplace.sol",
  "abi": [
    {
      "inputs": [],
      "stateMutability": "nonpayable",
      "type": "constructor"
    },
    {
      "anonymous": false,
      "inputs": [
        {
          "indexed": false,
          "internalType": "address",
          "name": "previousAdmin",
          "type": "address"
        },
        {
          "indexed": false,
          "internalType": "address",
          "name": "newAdmin",
          "type": "address"
        }
      ],
      "name": "AdminChanged",
      "type": "event"
    },
    {
      "anonymous": false,
      "inputs": [
        {
          "indexed": true,
          "internalType": "address",
          "name": "beacon",
          "type": "address"
        }
      ],
      "name": "BeaconUpgraded",
      "type": "event"
    },
    {
      "anonymous": false,
      "inputs": [
        {
          "indexed": false,
          "internalType": "uint8",
          "name": "version",
          "type": "uint8"
        }
      ],
      "name": "Initialized",
      "type": "event"
    },
    {
      "anonymous": false,
      "inputs": [
        {
          "indexed": true,
          "internalType": "address",
          "name": "seller",
          "type": "address"
        },
        {
          "indexed": true,
          "internalType": "uint256",
          "name": "tokenId",
          "type": "uint256"
        }
      ],
      "name": "ListingCancelled",
      "type": "event"
    },
    {
      "anonymous": false,
      "inputs": [
        {
          "indexed": true,
          "internalType": "address",
          "name": "previousOwner",
          "type": "address"
        },
        {
          "indexed": true,
          "internalType": "address",
          "name": "newOwner",
          "type": "address"
        }
      ],
      "name": "OwnershipTransferred",
      "type": "event"
    },
    {
      "anonymous": false,
      "inputs": [
        {
          "indexed": false,
          "internalType": "address",
          "name": "account",
          "type": "address"
        }
      ],
      "name": "Paused",
      "type": "event"
    },
    {
      "anonymous": false,
      "inputs": [
        {
          "indexed": true,
          "internalType": "address",
          "name": "seller",
          "type": "address"
        },
        {
          "indexed": true,
          "internalType": "uint256",
          "name": "tokenId",
          "type": "uint256"
        },
        {
          "indexed": false,
          "internalType": "uint256",
          "name": "amount",
          "type": "uint256"
        },
        {
          "indexed": false,
          "internalType": "uint256",
          "name": "pricePerFraction",
          "type": "uint256"
        }
      ],
      "name": "PropertyListed",
      "type": "event"
    },
    {
      "anonymous": false,
      "inputs": [
        {
          "indexed": true,
          "internalType": "address",
          "name": "seller",
          "type": "address"
        },
        {
          "indexed": true,
          "internalType": "address",
          "name": "buyer",
          "type": "address"
        },
        {
          "indexed": true,
          "internalType": "uint256",
          "name": "tokenId",
          "type": "uint256"
        },
        {
          "indexed": false,
          "internalType": "uint256",
          "name": "amount",
          "type": "uint256"
        },
        {
          "indexed": false,
          "internalType": "uint256",
          "name": "pricePerFraction",
          "type": "uint256"
        }
      ],
      "name": "PropertySold",
      "type": "event"
    },
    {
      "anonymous": false,
      "inputs": [
        {
          "indexed": false,
          "internalType": "address",
          "name": "account",
          "type": "address"
        }
      ],
      "name": "Unpaused",
      "type": "event"
    },
    {
      "anonymous": false,
      "inputs": [
        {
          "indexed": true,
          "internalType": "address",
          "name": "implementation",
          "type": "address"
        }
      ],
      "name": "Upgraded",
      "type": "event"
    },
    {
      "inputs": [
        {
          "internalType": "address",
          "name": "seller",
          "type": "address"
        },
        {
          "internalType": "uint256",
          "name": "tokenId",
          "type": "uint256"
        },
        {
          "internalType": "uint256",
          "name": "amount",
          "type": "uint256"
        }
      ],
      "name": "buyProperty",
      "outputs": [],
      "stateMutability": "nonpayable",
      "type": "function"
    },
    {
      "inputs": [
        {
          "internalType": "uint256",
          "name": "tokenId",
          "type": "uint256"
        }
      ],
      "name": "cancelListing",
      "outputs": [],
      "stateMutability": "nonpayable",
      "type": "function"
    },
    {
      "inputs": [
        {
          "internalType": "address",
          "name": "initialOwner",
          "type": "address"
        },
        {
          "internalType": "address",
          "name": "_propertyToken",
          "type": "address"
        },
        {
          "internalType": "address",
          "name": "_usdcToken",
          "type": "address"
        },
        {
          "internalType": "uint256",
          "name": "_platformFeeBps",
          "type": "uint256"
        }
      ],
      "name": "initialize",
      "outputs": [],
      "stateMutability": "nonpayable",
      "type": "function"
    },
    {
      "inputs": [
        {
          "internalType": "uint256",
          "name": "tokenId",
          "type": "uint256"
        },
        {
          "internalType": "uint256",
          "name": "amount",
          "type": "uint256"
        },
        {
          "internalType": "uint256",
          "name": "pricePerFraction",
          "type": "uint256"
        }
      ],
      "name": "listProperty",
      "outputs": [],
      "stateMutability": "nonpayable",
      "type": "function"
    },
    {
      "inputs": [
        {
          "internalType": "uint256",
          "name": "",
          "type": "uint256"
        },
        {
          "internalType": "address",
          "name": "",
          "type": "address"
        }
      ],
      "name": "listings",
      "outputs": [
        {
          "internalType": "address",
          "name": "seller",
          "type": "address"
        },
        {
          "internalType": "uint256",
          "name": "tokenId",
          "type": "uint256"
        },
        {
          "internalType": "uint256",
          "name": "amount",
          "type": "uint256"
        },
        {
          "internalType": "uint256",
          "name": "pricePerFraction",
          "type": "uint256"
        }
      ],
      "stateMutability": "view",
      "type": "function"
    },
    {
      "inputs": [
        {
          "internalType": "address",
          "name": "",
          "type": "address"
        },
        {
          "internalType": "address",
          "name": "",
          "type": "address"
        },
        {
          "internalType": "uint256[]",
          "name": "",
          "type": "uint256[]"
        },
        {
          "internalType": "uint256[]",
          "name": "",
          "type": "uint256[]"
        },
        {
          "internalType": "bytes",
          "name": "",
          "type": "bytes"
        }
      ],
      "name": "onERC1155BatchReceived",
      "outputs": [
        {
          "internalType": "bytes4",
          "name": "",
          "type": "bytes4"
        }
      ],
      "stateMutability": "nonpayable",
      "type": "function"
    },
    {
      "inputs": [
        {
          "internalType": "address",
          "name": "",
          "type": "address"
        },
        {
          "internalType": "address",
          "name": "",
          "type": "address"
        },
        {
          "internalType": "uint256",
          "name": "",
          "type": "uint256"
        },
        {
          "internalType": "uint256",
          "name": "",
          "type": "uint256"
        },
        {
          "internalType": "bytes",
          "name": "",
          "type": "bytes"
        }
      ],
      "name": "onERC1155Received",
      "outputs": [
        {
          "internalType": "bytes4",
          "name": "",
          "type": "bytes4"
        }
      ],
      "stateMutability": "nonpayable",
      "type": "function"
    },
    {
      "inputs": [],
      "name": "owner",
      "outputs": [
        {
          "internalType": "address",
          "name": "",
          "type": "address"
        }
      ],
      "stateMutability": "view",
      "type": "function"
    },
    {
      "inputs": [],
      "name": "pause",
      "outputs": [],
      "stateMutability": "nonpayable",
      "type": "function"
    },
    {
      "inputs": [],
      "name": "paused",
      "outputs": [
        {
          "internalType": "bool",
          "name": "",
          "type": "bool"
        }
      ],
      "stateMutability": "view",
      "type": "function"
    },
    {
      "inputs": [],
      "name": "platformFeeBps",
      "outputs": [
        {
          "internalType": "uint256",
          "name": "",
          "type": "uint256"
        }
      ],
      "stateMutability": "view",
      "type": "function"
    },
    {
      "inputs": [],
      "name": "propertyToken",
      "outputs": [
        {
          "internalType": "contract PropertyToken",
          "name": "",
          "type": "address"
        }
      ],
      "stateMutability": "view",
      "type": "function"
    },
    {
      "inputs": [],
      "name": "proxiableUUID",
      "outputs": [
        {
          "internalType": "bytes32",
          "name": "",
          "type": "bytes32"
        }
      ],
      "stateMutability": "view",
      "type": "function"
    },
    {
      "inputs": [],
      "name": "renounceOwnership",
      "outputs": [],
      "stateMutability": "nonpayable",
      "type": "function"
    },
    {
      "inputs": [
        {
          "internalType": "uint256",
          "name": "_platformFeeBps",
          "type": "uint256"
        }
      ],
      "name": "setPlatformFee",
      "outputs": [],
      "stateMutability": "nonpayable",
      "type": "function"
    },
    {
      "inputs": [
        {
          "internalType": "bytes4",
          "name": "interfaceId",
          "type": "bytes4"
        }
      ],
      "name": "supportsInterface",
      "outputs": [
        {
          "internalType": "bool",
          "name": "",
          "type": "bool"
        }
      ],
      "stateMutability": "view",
      "type": "function"
    },
    {
      "inputs": [
        {
          "internalType": "address",
          "name": "newOwner",
          "type": "address"
        }
      ],
      "name": "transferOwnership",
      "outputs": [],
      "stateMutability": "nonpayable",
      "type": "function"
    },
    {
      "inputs": [],
      "name": "unpause",
      "outputs": [],
      "stateMutability": "nonpayable",
      "type": "function"
    },
    {
      "inputs": [
        {
          "internalType": "address",
          "name": "newImplementation",
          "type": "address"
        }
      ],
      "name": "upgradeTo",
      "outputs": [],
      "stateMutability": "nonpayable",
      "type": "function"
    },
    {
      "inputs": [
        {
          "internalType": "address",
          "name": "newImplementation",
          "type": "address"
        },
        {
          "internalType": "bytes",
          "name": "data",
          "type": "bytes"
        }
      ],
      "name": "upgradeToAndCall",
      "outputs": [],
      "stateMutability": "payable",
      "type": "function"
    },
    {
      "inputs": [],
      "name": "usdcToken",
      "outputs": [
        {
          "internalType": "contract IERC20",
          "name": "",
          "type": "address"
        }
      ],
      "stateMutability": "view",
      "type": "function"
    }
  ],
  "bytecode": "0x60a06040523073ffffffffffffffffffffffffffffffffffffffff1660809073ffffffffffffffffffffffffffffffffffffffff168152503480156200004457600080fd5b50620000556200005b60201b60201c565b62000205565b600060019054906101000a900460ff1615620000ae576040517f08c379a0000000000000000000000000000000000000000000000000000000008152600401620000a590620001a8565b60405180910390fd5b60ff801660008054906101000a900460ff1660ff16146200011f5760ff6000806101000a81548160ff021916908360ff1602179055507f7f26b83ff96e1f2b6a682f133852f6798a09c465da95921460cefb384740249860ff604051620001169190620001e8565b60405180910390a15b565b600082825260208201905092915050565b7f496e697469616c697a61626c653a20636f6e747261637420697320696e69746960008201527f616c697a696e6700000000000000000000000000000000000000000000000000602082015250565b60006200019060278362000121565b91506200019d8262000132565b604082019050919050565b60006020820190508181036000830152620001c38162000181565b9050919050565b600060ff82169050919050565b620001e281620001ca565b82525050565b6000602082019050620001ff6000830184620001d7565b92915050565b60805161381b6200023d60003960008181610d3301528181610dc101528181610ef401528181610f820152611032015261381b6000f3fe60806040526004361061012a5760003560e01c806352d1902d116100ab5780638da5cb5b1161006f5780638da5cb5b14610371578063927fbfc81461039c578063bc197c81146103dc578063cf756fdf14610419578063f23a6e6114610442578063f2fde38b1461047f5761012a565b806352d1902d146102c45780635c975abb146102ef578063715018a61461031a5780638456cb59146103315780638cb40010146103485761012a565b8063305a67a8116100f2578063305a67a8146102145780633659cfe61461023d5780633f4ba83a1461026657806343ae26951461027d5780634f1ef286146102a85761012a565b806301ffc9a71461012f57806311eac8551461016c57806312e8e2c314610197578063165f2ebe146101c057806322dcd13e146101e9575b600080fd5b34801561013b57600080fd5b50610156600480360381019061015191906121d6565b6104a8565b604051610163919061221e565b60405180910390f35b34801561017857600080fd5b50610181610522565b60405161018e91906122b8565b60405180910390f35b3480156101a357600080fd5b506101be60048036038101906101b99190612309565b610549565b005b3480156101cc57600080fd5b506101e760048036038101906101e29190612374565b61055c565b005b3480156101f557600080fd5b506101fe610ac9565b60405161020b91906123d6565b60405180910390f35b34801561022057600080fd5b5061023b60048036038101906102369190612309565b610ad0565b005b34801561024957600080fd5b50610264600480360381019061025f91906123f1565b610d31565b005b34801561027257600080fd5b5061027b610eb9565b005b34801561028957600080fd5b50610292610ecb565b60405161029f919061243f565b60405180910390f35b6102c260048036038101906102bd91906125a0565b610ef2565b005b3480156102d057600080fd5b506102d961102e565b6040516102e69190612615565b60405180910390f35b3480156102fb57600080fd5b506103046110e7565b604051610311919061221e565b60405180910390f35b34801561032657600080fd5b5061032f6110fe565b005b34801561033d57600080fd5b50610346611112565b005b34801561035457600080fd5b5061036f600480360381019061036a9190612630565b611124565b005b34801561037d57600080fd5b5061038661146c565b6040516103939190612692565b60405180910390f35b3480156103a857600080fd5b506103c360048036038101906103be91906126ad565b611496565b6040516103d394939291906126ed565b60405180910390f35b3480156103e857600080fd5b5061040360048036038101906103fe91906127fa565b6114f4565b60405161041091906128d8565b60405180910390f35b34801561042557600080fd5b50610440600480360381019061043b91906128f3565b611509565b005b34801561044e57600080fd5b506104696004803603810190610464919061295a565b6116ef565b60405161047691906128d8565b60405180910390f35b34801561048b57600080fd5b506104a660048036038101906104a191906123f1565b611704565b005b60007f4e2312e0000000000000000000000000000000000000000000000000000000007bffffffffffffffffffffffffffffffffffffffffffffffffffffffff1916827bffffffffffffffffffffffffffffffffffffffffffffffffffffffff1916148061051b575061051a82611787565b5b9050919050565b61019260009054906101000a900473ffffffffffffffffffffffffffffffffffffffff1681565b6105516117f1565b806101938190555050565b61056461186f565b6000610194600084815260200190815260200160002060008573ffffffffffffffffffffffffffffffffffffffff1673ffffffffffffffffffffffffffffffffffffffff1681526020019081526020016000209050600073ffffffffffffffffffffffffffffffffffffffff168160000160009054906101000a900473ffffffffffffffffffffffffffffffffffffffff1673ffffffffffffffffffffffffffffffffffffffff160361064c576040517f08c379a000000000000000000000000000000000000000000000000000000000815260040161064390612a4e565b60405180910390fd5b8181600201541015610693576040517f08c379a000000000000000000000000000000000000000000000000000000000815260040161068a90612aba565b60405180910390fd5b60008160030154836106a59190612b09565b9050600061271061019354836106bb9190612b09565b6106c59190612b7a565b9050600081836106d59190612bab565b90508261019260009054906101000a900473ffffffffffffffffffffffffffffffffffffffff1673ffffffffffffffffffffffffffffffffffffffff166370a08231336040518263ffffffff1660e01b81526004016107349190612692565b602060405180830381865afa158015610751573d6000803e3d6000fd5b505050506040513d601f19601f820116820180604052508101906107759190612bf4565b10156107b6576040517f08c379a00000000000000000000000000000000000000000000000000000000081526004016107ad90612c6d565b60405180910390fd5b61019260009054906101000a900473ffffffffffffffffffffffffffffffffffffffff1673ffffffffffffffffffffffffffffffffffffffff166323b872dd3389846040518463ffffffff1660e01b815260040161081693929190612c8d565b6020604051808303816000875af1158015610835573d6000803e3d6000fd5b505050506040513d601f19601f820116820180604052508101906108599190612cf0565b5061019260009054906101000a900473ffffffffffffffffffffffffffffffffffffffff1673ffffffffffffffffffffffffffffffffffffffff166323b872dd336108a261146c565b856040518463ffffffff1660e01b81526004016108c193929190612c8d565b6020604051808303816000875af11580156108e0573d6000803e3d6000fd5b505050506040513d601f19601f820116820180604052508101906109049190612cf0565b50848460020160008282546109199190612bab565b9250508190555061019160009054906101000a900473ffffffffffffffffffffffffffffffffffffffff1673ffffffffffffffffffffffffffffffffffffffff1663f242432a303389896040518563ffffffff1660e01b81526004016109829493929190612d54565b600060405180830381600087803b15801561099c57600080fd5b505af11580156109b0573d6000803e3d6000fd5b505050506000846002015403610a5457610194600087815260200190815260200160002060008873ffffffffffffffffffffffffffffffffffffffff1673ffffffffffffffffffffffffffffffffffffffff168152602001908152602001600020600080820160006101000a81549073ffffffffffffffffffffffffffffffffffffffff021916905560018201600090556002820160009055600382016000905550505b853373ffffffffffffffffffffffffffffffffffffffff168873ffffffffffffffffffffffffffffffffffffffff167fd47e6ff564e3cacfb4f755b287f88969282dff9e6d932811a56d56da7d1b4f65888860030154604051610ab8929190612dac565b60405180910390a450505050505050565b6101935481565b6000610194600083815260200190815260200160002060003373ffffffffffffffffffffffffffffffffffffffff1673ffffffffffffffffffffffffffffffffffffffff1681526020019081526020016000209050600073ffffffffffffffffffffffffffffffffffffffff168160000160009054906101000a900473ffffffffffffffffffffffffffffffffffffffff1673ffffffffffffffffffffffffffffffffffffffff1603610bb8576040517f08c379a0000000000000000000000000000000000000000000000000000000008152600401610baf90612a4e565b60405180910390fd5b600081600201549050610194600084815260200190815260200160002060003373ffffffffffffffffffffffffffffffffffffffff1673ffffffffffffffffffffffffffffffffffffffff168152602001908152602001600020600080820160006101000a81549073ffffffffffffffffffffffffffffffffffffffff0219169055600182016000905560028201600090556003820160009055505061019160009054906101000a900473ffffffffffffffffffffffffffffffffffffffff1673ffffffffffffffffffffffffffffffffffffffff1663f242432a303386856040518563ffffffff1660e01b8152600401610cb69493929190612d54565b600060405180830381600087803b158015610cd057600080fd5b505af1158015610ce4573d6000803e3d6000fd5b50505050823373ffffffffffffffffffffffffffffffffffffffff167f93ec4766fcd2d9dfdceab8f2e13ba0d9d826645cf03167fdb92b3b7359b5248c60405160405180910390a3505050565b7f000000000000000000000000000000000000000000000000000000000000000073ffffffffffffffffffffffffffffffffffffffff163073ffffffffffffffffffffffffffffffffffffffff1603610dbf576040517f08c379a0000000000000000000000000000000000000000000000000000000008152600401610db690612e47565b60405180910390fd5b7f000000000000000000000000000000000000000000000000000000000000000073ffffffffffffffffffffffffffffffffffffffff16610dfe6118b9565b73ffffffffffffffffffffffffffffffffffffffff1614610e54576040517f08c379a0000000000000000000000000000000000000000000000000000000008152600401610e4b90612ed9565b60405180910390fd5b610e5d81611910565b610eb681600067ffffffffffffffff811115610e7c57610e7b612475565b5b6040519080825280601f01601f191660200182016040528015610eae5781602001600182028036833780820191505090505b50600061191b565b50565b610ec16117f1565b610ec9611a89565b565b61019160009054906101000a900473ffffffffffffffffffffffffffffffffffffffff1681565b7f000000000000000000000000000000000000000000000000000000000000000073ffffffffffffffffffffffffffffffffffffffff163073ffffffffffffffffffffffffffffffffffffffff1603610f80576040517f08c379a0000000000000000000000000000000000000000000000000000000008152600401610f7790612e47565b60405180910390fd5b7f000000000000000000000000000000000000000000000000000000000000000073ffffffffffffffffffffffffffffffffffffffff16610fbf6118b9565b73ffffffffffffffffffffffffffffffffffffffff1614611015576040517f08c379a000000000000000000000000000000000000000000000000000000000815260040161100c90612ed9565b60405180910390fd5b61101e82611910565b61102a8282600161191b565b5050565b60007f000000000000000000000000000000000000000000000000000000000000000073ffffffffffffffffffffffffffffffffffffffff163073ffffffffffffffffffffffffffffffffffffffff16146110be576040517f08c379a00000000000000000000000000000000000000000000000000000000081526004016110b590612f6b565b60405180910390fd5b7f360894a13ba1a3210667c828492db98dca3e2076cc3735a920a3ca505d382bbc60001b905090565b600060c960009054906101000a900460ff16905090565b6111066117f1565b6111106000611aec565b565b61111a6117f1565b611122611bb2565b565b61112c61186f565b6000821161116f576040517f08c379a000000000000000000000000000000000000000000000000000000000815260040161116690612fd7565b60405180910390fd5b600081116111b2576040517f08c379a00000000000000000000000000000000000000000000000000000000081526004016111a990613043565b60405180910390fd5b8161019160009054906101000a900473ffffffffffffffffffffffffffffffffffffffff1673ffffffffffffffffffffffffffffffffffffffff1662fdd58e33866040518363ffffffff1660e01b8152600401611210929190613063565b602060405180830381865afa15801561122d573d6000803e3d6000fd5b505050506040513d601f19601f820116820180604052508101906112519190612bf4565b1015611292576040517f08c379a0000000000000000000000000000000000000000000000000000000008152600401611289906130d8565b60405180910390fd5b61019160009054906101000a900473ffffffffffffffffffffffffffffffffffffffff1673ffffffffffffffffffffffffffffffffffffffff1663f242432a333086866040518563ffffffff1660e01b81526004016112f49493929190612d54565b600060405180830381600087803b15801561130e57600080fd5b505af1158015611322573d6000803e3d6000fd5b5050505060405180608001604052803373ffffffffffffffffffffffffffffffffffffffff16815260200184815260200183815260200182815250610194600085815260200190815260200160002060003373ffffffffffffffffffffffffffffffffffffffff1673ffffffffffffffffffffffffffffffffffffffff16815260200190815260200160002060008201518160000160006101000a81548173ffffffffffffffffffffffffffffffffffffffff021916908373ffffffffffffffffffffffffffffffffffffffff160217905550602082015181600101556040820151816002015560608201518160030155905050823373ffffffffffffffffffffffffffffffffffffffff167fb426f4a870abe19d9b3d54a065ecb88cc4430bd9e9b7ea340196cd461e44e7af848460405161145f929190612dac565b60405180910390a3505050565b6000603360009054906101000a900473ffffffffffffffffffffffffffffffffffffffff16905090565b610194602052816000526040600020602052806000526040600020600091509150508060000160009054906101000a900473ffffffffffffffffffffffffffffffffffffffff16908060010154908060020154908060030154905084565b600063bc197c8160e01b905095945050505050565b60008060019054906101000a900460ff1615905080801561153a5750600160008054906101000a900460ff1660ff16105b80611567575061154930611c15565b1580156115665750600160008054906101000a900460ff1660ff16145b5b6115a6576040517f08c379a000000000000000000000000000000000000000000000000000000000815260040161159d9061316a565b60405180910390fd5b60016000806101000a81548160ff021916908360ff16021790555080156115e3576001600060016101000a81548160ff0219169083151502179055505b6115eb611c38565b6115f3611c91565b6115fb611ce2565b611603611d3b565b8361019160006101000a81548173ffffffffffffffffffffffffffffffffffffffff021916908373ffffffffffffffffffffffffffffffffffffffff1602179055508261019260006101000a81548173ffffffffffffffffffffffffffffffffffffffff021916908373ffffffffffffffffffffffffffffffffffffffff160217905550816101938190555080156116e85760008060016101000a81548160ff0219169083151502179055507f7f26b83ff96e1f2b6a682f133852f6798a09c465da95921460cefb384740249860016040516116df91906131d2565b60405180910390a15b5050505050565b600063f23a6e6160e01b905095945050505050565b61170c6117f1565b600073ffffffffffffffffffffffffffffffffffffffff168173ffffffffffffffffffffffffffffffffffffffff160361177b576040517f08c379a00000000000000000000000000000000000000000000000000000000081526004016117729061325f565b60405180910390fd5b61178481611aec565b50565b60007f01ffc9a7000000000000000000000000000000000000000000000000000000007bffffffffffffffffffffffffffffffffffffffffffffffffffffffff1916827bffffffffffffffffffffffffffffffffffffffffffffffffffffffff1916149050919050565b6117f9611d8c565b73ffffffffffffffffffffffffffffffffffffffff1661181761146c565b73ffffffffffffffffffffffffffffffffffffffff161461186d576040517f08c379a0000000000000000000000000000000000000000000000000000000008152600401611864906132cb565b60405180910390fd5b565b6118776110e7565b156118b7576040517f08c379a00000000000000000000000000000000000000000000000000000000081526004016118ae90613337565b60405180910390fd5b565b60006118e77f360894a13ba1a3210667c828492db98dca3e2076cc3735a920a3ca505d382bbc60001b611d94565b60000160009054906101000a900473ffffffffffffffffffffffffffffffffffffffff16905090565b6119186117f1565b50565b6119477f4910fdfa16fed3260ed0e7147f7cc6da11a60208b5b9406d12a635614ffd914360001b611d9e565b60000160009054906101000a900460ff161561196b5761196683611da8565b611a84565b8273ffffffffffffffffffffffffffffffffffffffff166352d1902d6040518163ffffffff1660e01b8152600401602060405180830381865afa9250505080156119d357506040513d601f19601f820116820180604052508101906119d09190613383565b60015b611a12576040517f08c379a0000000000000000000000000000000000000000000000000000000008152600401611a0990613422565b60405180910390fd5b7f360894a13ba1a3210667c828492db98dca3e2076cc3735a920a3ca505d382bbc60001b8114611a77576040517f08c379a0000000000000000000000000000000000000000000000000000000008152600401611a6e906134b4565b60405180910390fd5b50611a83838383611e61565b5b505050565b611a91611e8d565b600060c960006101000a81548160ff0219169083151502179055507f5db9ee0a495bf2e6ff9c91a7834c1ba4fdd244a5e8aa4e537bd38aeae4b073aa611ad5611d8c565b604051611ae29190612692565b60405180910390a1565b6000603360009054906101000a900473ffffffffffffffffffffffffffffffffffffffff16905081603360006101000a81548173ffffffffffffffffffffffffffffffffffffffff021916908373ffffffffffffffffffffffffffffffffffffffff1602179055508173ffffffffffffffffffffffffffffffffffffffff168173ffffffffffffffffffffffffffffffffffffffff167f8be0079c531659141344cd1fd0a4f28419497f9722a3daafe3b4186f6b6457e060405160405180910390a35050565b611bba61186f565b600160c960006101000a81548160ff0219169083151502179055507f62e78cea01bee320cd4e420270b5ea74000d11b0c9f74754ebdbfc544b05a258611bfe611d8c565b604051611c0b9190612692565b60405180910390a1565b6000808273ffffffffffffffffffffffffffffffffffffffff163b119050919050565b600060019054906101000a900460ff16611c87576040517f08c379a0000000000000000000000000000000000000000000000000000000008152600401611c7e90613546565b60405180910390fd5b611c8f611ed6565b565b600060019054906101000a900460ff16611ce0576040517f08c379a0000000000000000000000000000000000000000000000000000000008152600401611cd790613546565b60405180910390fd5b565b600060019054906101000a900460ff16611d31576040517f08c379a0000000000000000000000000000000000000000000000000000000008152600401611d2890613546565b60405180910390fd5b611d39611f37565b565b600060019054906101000a900460ff16611d8a576040517f08c379a0000000000000000000000000000000000000000000000000000000008152600401611d8190613546565b60405180910390fd5b565b600033905090565b6000819050919050565b6000819050919050565b611db181611c15565b611df0576040517f08c379a0000000000000000000000000000000000000000000000000000000008152600401611de7906135d8565b60405180910390fd5b80611e1d7f360894a13ba1a3210667c828492db98dca3e2076cc3735a920a3ca505d382bbc60001b611d94565b60000160006101000a81548173ffffffffffffffffffffffffffffffffffffffff021916908373ffffffffffffffffffffffffffffffffffffffff16021790555050565b611e6a83611fa3565b600082511180611e775750805b15611e8857611e868383611ff2565b505b505050565b611e956110e7565b611ed4576040517f08c379a0000000000000000000000000000000000000000000000000000000008152600401611ecb90613644565b60405180910390fd5b565b600060019054906101000a900460ff16611f25576040517f08c379a0000000000000000000000000000000000000000000000000000000008152600401611f1c90613546565b60405180910390fd5b611f35611f30611d8c565b611aec565b565b600060019054906101000a900460ff16611f86576040517f08c379a0000000000000000000000000000000000000000000000000000000008152600401611f7d90613546565b60405180910390fd5b600060c960006101000a81548160ff021916908315150217905550565b611fac81611da8565b8073ffffffffffffffffffffffffffffffffffffffff167fbc7cd75a20ee27fd9adebab32041f755214dbc6bffa90cc0225b39da2e5c2d3b60405160405180910390a250565b606061201783836040518060600160405280602781526020016137bf6027913961201f565b905092915050565b60606000808573ffffffffffffffffffffffffffffffffffffffff168560405161204991906136d5565b600060405180830381855af49150503d8060008114612084576040519150601f19603f3d011682016040523d82523d6000602084013e612089565b606091505b509150915061209a868383876120a5565b925050509392505050565b606083156121075760008351036120ff576120bf85611c15565b6120fe576040517f08c379a00000000000000000000000000000000000000000000000000000000081526004016120f590613738565b60405180910390fd5b5b829050612112565b612111838361211a565b5b949350505050565b60008251111561212d5781518083602001fd5b806040517f08c379a0000000000000000000000000000000000000000000000000000000008152600401612161919061379c565b60405180910390fd5b6000604051905090565b600080fd5b600080fd5b60007fffffffff0000000000000000000000000000000000000000000000000000000082169050919050565b6121b38161217e565b81146121be57600080fd5b50565b6000813590506121d0816121aa565b92915050565b6000602082840312156121ec576121eb612174565b5b60006121fa848285016121c1565b91505092915050565b60008115159050919050565b61221881612203565b82525050565b6000602082019050612233600083018461220f565b92915050565b600073ffffffffffffffffffffffffffffffffffffffff82169050919050565b6000819050919050565b600061227e61227961227484612239565b612259565b612239565b9050919050565b600061229082612263565b9050919050565b60006122a282612285565b9050919050565b6122b281612297565b82525050565b60006020820190506122cd60008301846122a9565b92915050565b6000819050919050565b6122e6816122d3565b81146122f157600080fd5b50565b600081359050612303816122dd565b92915050565b60006020828403121561231f5761231e612174565b5b600061232d848285016122f4565b91505092915050565b600061234182612239565b9050919050565b61235181612336565b811461235c57600080fd5b50565b60008135905061236e81612348565b92915050565b60008060006060848603121561238d5761238c612174565b5b600061239b8682870161235f565b93505060206123ac868287016122f4565b92505060406123bd868287016122f4565b9150509250925092565b6123d0816122d3565b82525050565b60006020820190506123eb60008301846123c7565b92915050565b60006020828403121561240757612406612174565b5b60006124158482850161235f565b91505092915050565b600061242982612285565b9050919050565b6124398161241e565b82525050565b60006020820190506124546000830184612430565b92915050565b600080fd5b600080fd5b6000601f19601f8301169050919050565b7f4e487b7100000000000000000000000000000000000000000000000000000000600052604160045260246000fd5b6124ad82612464565b810181811067ffffffffffffffff821117156124cc576124cb612475565b5b80604052505050565b60006124df61216a565b90506124eb82826124a4565b919050565b600067ffffffffffffffff82111561250b5761250a612475565b5b61251482612464565b9050602081019050919050565b82818337600083830152505050565b600061254361253e846124f0565b6124d5565b90508281526020810184848401111561255f5761255e61245f565b5b61256a848285612521565b509392505050565b600082601f8301126125875761258661245a565b5b8135612597848260208601612530565b91505092915050565b600080604083850312156125b7576125b6612174565b5b60006125c58582860161235f565b925050602083013567ffffffffffffffff8111156125e6576125e5612179565b5b6125f285828601612572565b9150509250929050565b6000819050919050565b61260f816125fc565b82525050565b600060208201905061262a6000830184612606565b92915050565b60008060006060848603121561264957612648612174565b5b6000612657868287016122f4565b9350506020612668868287016122f4565b9250506040612679868287016122f4565b9150509250925092565b61268c81612336565b82525050565b60006020820190506126a76000830184612683565b92915050565b600080604083850312156126c4576126c3612174565b5b60006126d2858286016122f4565b92505060206126e38582860161235f565b9150509250929050565b60006080820190506127026000830187612683565b61270f60208301866123c7565b61271c60408301856123c7565b61272960608301846123c7565b95945050505050565b600067ffffffffffffffff82111561274d5761274c612475565b5b602082029050602081019050919050565b600080fd5b600061277661277184612732565b6124d5565b905080838252602082019050602084028301858111156127995761279861275e565b5b835b818110156127c257806127ae88826122f4565b84526020840193505060208101905061279b565b5050509392505050565b600082601f8301126127e1576127e061245a565b5b81356127f1848260208601612763565b91505092915050565b600080600080600060a0868803121561281657612815612174565b5b60006128248882890161235f565b95505060206128358882890161235f565b945050604086013567ffffffffffffffff81111561285657612855612179565b5b612862888289016127cc565b935050606086013567ffffffffffffffff81111561288357612882612179565b5b61288f888289016127cc565b925050608086013567ffffffffffffffff8111156128b0576128af612179565b5b6128bc88828901612572565b9150509295509295909350565b6128d28161217e565b82525050565b60006020820190506128ed60008301846128c9565b92915050565b6000806000806080858703121561290d5761290c612174565b5b600061291b8782880161235f565b945050602061292c8782880161235f565b935050604061293d8782880161235f565b925050606061294e878288016122f4565b91505092959194509250565b600080600080600060a0868803121561297657612975612174565b5b60006129848882890161235f565b95505060206129958882890161235f565b94505060406129a6888289016122f4565b93505060606129b7888289016122f4565b925050608086013567ffffffffffffffff8111156129d8576129d7612179565b5b6129e488828901612572565b9150509295509295909350565b600082825260208201905092915050565b7f4c697374696e6720646f6573206e6f7420657869737400000000000000000000600082015250565b6000612a386016836129f1565b9150612a4382612a02565b602082019050919050565b60006020820190508181036000830152612a6781612a2b565b9050919050565b7f4e6f7420656e6f756768206672616374696f6e7320696e206c697374696e6700600082015250565b6000612aa4601f836129f1565b9150612aaf82612a6e565b602082019050919050565b60006020820190508181036000830152612ad381612a97565b9050919050565b7f4e487b7100000000000000000000000000000000000000000000000000000000600052601160045260246000fd5b6000612b14826122d3565b9150612b1f836122d3565b9250828202612b2d816122d3565b91508282048414831517612b4457612b43612ada565b5b5092915050565b7f4e487b7100000000000000000000000000000000000000000000000000000000600052601260045260246000fd5b6000612b85826122d3565b9150612b90836122d3565b925082612ba057612b9f612b4b565b5b828204905092915050565b6000612bb6826122d3565b9150612bc1836122d3565b9250828203905081811115612bd957612bd8612ada565b5b92915050565b600081519050612bee816122dd565b92915050565b600060208284031215612c0a57612c09612174565b5b6000612c1884828501612bdf565b91505092915050565b7f496e73756666696369656e7420555344432062616c616e636500000000000000600082015250565b6000612c576019836129f1565b9150612c6282612c21565b602082019050919050565b60006020820190508181036000830152612c8681612c4a565b9050919050565b6000606082019050612ca26000830186612683565b612caf6020830185612683565b612cbc60408301846123c7565b949350505050565b612ccd81612203565b8114612cd857600080fd5b50565b600081519050612cea81612cc4565b92915050565b600060208284031215612d0657612d05612174565b5b6000612d1484828501612cdb565b91505092915050565b600082825260208201905092915050565b50565b6000612d3e600083612d1d565b9150612d4982612d2e565b600082019050919050565b600060a082019050612d696000830187612683565b612d766020830186612683565b612d8360408301856123c7565b612d9060608301846123c7565b8181036080830152612da181612d31565b905095945050505050565b6000604082019050612dc160008301856123c7565b612dce60208301846123c7565b9392505050565b7f46756e6374696f6e206d7573742062652063616c6c6564207468726f7567682060008201527f64656c656761746563616c6c0000000000000000000000000000000000000000602082015250565b6000612e31602c836129f1565b9150612e3c82612dd5565b604082019050919050565b60006020820190508181036000830152612e6081612e24565b9050919050565b7f46756e6374696f6e206d7573742062652063616c6c6564207468726f7567682060008201527f6163746976652070726f78790000000000000000000000000000000000000000602082015250565b6000612ec3602c836129f1565b9150612ece82612e67565b604082019050919050565b60006020820190508181036000830152612ef281612eb6565b9050919050565b7f555550535570677261646561626c653a206d757374206e6f742062652063616c60008201527f6c6564207468726f7567682064656c656761746563616c6c0000000000000000602082015250565b6000612f556038836129f1565b9150612f6082612ef9565b604082019050919050565b60006020820190508181036000830152612f8481612f48565b9050919050565b7f416d6f756e74206d7573742062652067726561746572207468616e2030000000600082015250565b6000612fc1601d836129f1565b9150612fcc82612f8b565b602082019050919050565b60006020820190508181036000830152612ff081612fb4565b9050919050565b7f5072696365206d7573742062652067726561746572207468616e203000000000600082015250565b600061302d601c836129f1565b915061303882612ff7565b602082019050919050565b6000602082019050818103600083015261305c81613020565b9050919050565b60006040820190506130786000830185612683565b61308560208301846123c7565b9392505050565b7f496e73756666696369656e742062616c616e6365000000000000000000000000600082015250565b60006130c26014836129f1565b91506130cd8261308c565b602082019050919050565b600060208201905081810360008301526130f1816130b5565b9050919050565b7f496e697469616c697a61626c653a20636f6e747261637420697320616c72656160008201527f647920696e697469616c697a6564000000000000000000000000000000000000602082015250565b6000613154602e836129f1565b915061315f826130f8565b604082019050919050565b6000602082019050818103600083015261318381613147565b9050919050565b6000819050919050565b600060ff82169050919050565b60006131bc6131b76131b28461318a565b612259565b613194565b9050919050565b6131cc816131a1565b82525050565b60006020820190506131e760008301846131c3565b92915050565b7f4f776e61626c653a206e6577206f776e657220697320746865207a65726f206160008201527f6464726573730000000000000000000000000000000000000000000000000000602082015250565b60006132496026836129f1565b9150613254826131ed565b604082019050919050565b600060208201905081810360008301526132788161323c565b9050919050565b7f4f776e61626c653a2063616c6c6572206973206e6f7420746865206f776e6572600082015250565b60006132b56020836129f1565b91506132c08261327f565b602082019050919050565b600060208201905081810360008301526132e4816132a8565b9050919050565b7f5061757361626c653a2070617573656400000000000000000000000000000000600082015250565b60006133216010836129f1565b915061332c826132eb565b602082019050919050565b6000602082019050818103600083015261335081613314565b9050919050565b613360816125fc565b811461336b57600080fd5b50565b60008151905061337d81613357565b92915050565b60006020828403121561339957613398612174565b5b60006133a78482850161336e565b91505092915050565b7f45524331393637557067726164653a206e657720696d706c656d656e7461746960008201527f6f6e206973206e6f742055555053000000000000000000000000000000000000602082015250565b600061340c602e836129f1565b9150613417826133b0565b604082019050919050565b6000602082019050818103600083015261343b816133ff565b9050919050565b7f45524331393637557067726164653a20756e737570706f727465642070726f7860008201527f6961626c65555549440000000000000000000000000000000000000000000000602082015250565b600061349e6029836129f1565b91506134a982613442565b604082019050919050565b600060208201905081810360008301526134cd81613491565b9050919050565b7f496e697469616c697a61626c653a20636f6e7472616374206973206e6f74206960008201527f6e697469616c697a696e67000000000000000000000000000000000000000000602082015250565b6000613530602b836129f1565b915061353b826134d4565b604082019050919050565b6000602082019050818103600083015261355f81613523565b9050919050565b7f455243313936373a206e657720696d706c656d656e746174696f6e206973206e60008201527f6f74206120636f6e747261637400000000000000000000000000000000000000602082015250565b60006135c2602d836129f1565b91506135cd82613566565b604082019050919050565b600060208201905081810360008301526135f1816135b5565b9050919050565b7f5061757361626c653a206e6f7420706175736564000000000000000000000000600082015250565b600061362e6014836129f1565b9150613639826135f8565b602082019050919050565b6000602082019050818103600083015261365d81613621565b9050919050565b600081519050919050565b600081905092915050565b60005b8381101561369857808201518184015260208101905061367d565b60008484015250505050565b60006136af82613664565b6136b9818561366f565b93506136c981856020860161367a565b80840191505092915050565b60006136e182846136a4565b915081905092915050565b7f416464726573733a2063616c6c20746f206e6f6e2d636f6e7472616374000000600082015250565b6000613722601d836129f1565b915061372d826136ec565b602082019050919050565b6000602082019050818103600083015261375181613715565b9050919050565b600081519050919050565b600061376e82613758565b61377881856129f1565b935061378881856020860161367a565b61379181612464565b840191505092915050565b600060208201905081810360008301526137b68184613763565b90509291505056fe416464726573733a206c6f772d6c6576656c2064656c65676174652063616c6c206661696c6564a26469706673582212202fda20b1bacb7718d486ec34a7ed4986ab04434867c39976cc707e58a4d2f45464736f6c63430008180033",
  "linkReferences": {},
  "deployedLinkReferences": {}
}