{
  "_format": "hh-sol-artifact-1",
  "contractName": "PropertyToken",
  "sourceName": "contracts/PropertyToken.sol",
  "abi": [
    {
      "inputs": [],
      "stateMutability": "nonpayable",
      "type": "constructor"
    },
    {
      "anonymous": false,
      "inputs": [
        {
          "indexed": false,
          "internalType": "address",
          "name": "previousAdmin",
          "type": "address"
        },
        {
          "indexed": false,
          "internalType": "address",
          "name": "newAdmin",
          "type": "address"
        }
      ],
      "name": "AdminChanged",
      "type": "event"
    },
    {
      "anonymous": false,
      "inputs": [
        {
          "indexed": true,
          "internalType": "address",
          "name": "account",
          "type": "address"
        },
        {
          "indexed": true,
          "internalType": "address",
          "name": "operator",
          "type": "address"
        },
        {
          "indexed": false,
          "internalType": "bool",
          "name": "approved",
          "type": "bool"
        }
      ],
      "name": "ApprovalForAll",
      "type": "event"
    },
    {
      "anonymous": false,
      "inputs": [
        {
          "indexed": true,
          "internalType": "address",
          "name": "beacon",
          "type": "address"
        }
      ],
      "name": "BeaconUpgraded",
      "type": "event"
    },
    {
      "anonymous": false,
      "inputs": [
        {
          "indexed": false,
          "internalType": "uint8",
          "name": "version",
          "type": "uint8"
        }
      ],
      "name": "Initialized",
      "type": "event"
    },
    {
      "anonymous": false,
      "inputs": [
        {
          "indexed": true,
          "internalType": "address",
          "name": "previousOwner",
          "type": "address"
        },
        {
          "indexed": true,
          "internalType": "address",
          "name": "newOwner",
          "type": "address"
        }
      ],
      "name": "OwnershipTransferred",
      "type": "event"
    },
    {
      "anonymous": false,
      "inputs": [
        {
          "indexed": false,
          "internalType": "address",
          "name": "account",
          "type": "address"
        }
      ],
      "name": "Paused",
      "type": "event"
    },
    {
      "anonymous": false,
      "inputs": [
        {
          "indexed": true,
          "internalType": "address",
          "name": "operator",
          "type": "address"
        },
        {
          "indexed": true,
          "internalType": "address",
          "name": "from",
          "type": "address"
        },
        {
          "indexed": true,
          "internalType": "address",
          "name": "to",
          "type": "address"
        },
        {
          "indexed": false,
          "internalType": "uint256[]",
          "name": "ids",
          "type": "uint256[]"
        },
        {
          "indexed": false,
          "internalType": "uint256[]",
          "name": "values",
          "type": "uint256[]"
        }
      ],
      "name": "TransferBatch",
      "type": "event"
    },
    {
      "anonymous": false,
      "inputs": [
        {
          "indexed": true,
          "internalType": "address",
          "name": "operator",
          "type": "address"
        },
        {
          "indexed": true,
          "internalType": "address",
          "name": "from",
          "type": "address"
        },
        {
          "indexed": true,
          "internalType": "address",
          "name": "to",
          "type": "address"
        },
        {
          "indexed": false,
          "internalType": "uint256",
          "name": "id",
          "type": "uint256"
        },
        {
          "indexed": false,
          "internalType": "uint256",
          "name": "value",
          "type": "uint256"
        }
      ],
      "name": "TransferSingle",
      "type": "event"
    },
    {
      "anonymous": false,
      "inputs": [
        {
          "indexed": false,
          "internalType": "string",
          "name": "value",
          "type": "string"
        },
        {
          "indexed": true,
          "internalType": "uint256",
          "name": "id",
          "type": "uint256"
        }
      ],
      "name": "URI",
      "type": "event"
    },
    {
      "anonymous": false,
      "inputs": [
        {
          "indexed": false,
          "internalType": "address",
          "name": "account",
          "type": "address"
        }
      ],
      "name": "Unpaused",
      "type": "event"
    },
    {
      "anonymous": false,
      "inputs": [
        {
          "indexed": true,
          "internalType": "address",
          "name": "implementation",
          "type": "address"
        }
      ],
      "name": "Upgraded",
      "type": "event"
    },
    {
      "inputs": [
        {
          "internalType": "address",
          "name": "account",
          "type": "address"
        },
        {
          "internalType": "uint256",
          "name": "id",
          "type": "uint256"
        }
      ],
      "name": "balanceOf",
      "outputs": [
        {
          "internalType": "uint256",
          "name": "",
          "type": "uint256"
        }
      ],
      "stateMutability": "view",
      "type": "function"
    },
    {
      "inputs": [
        {
          "internalType": "address[]",
          "name": "accounts",
          "type": "address[]"
        },
        {
          "internalType": "uint256[]",
          "name": "ids",
          "type": "uint256[]"
        }
      ],
      "name": "balanceOfBatch",
      "outputs": [
        {
          "internalType": "uint256[]",
          "name": "",
          "type": "uint256[]"
        }
      ],
      "stateMutability": "view",
      "type": "function"
    },
    {
      "inputs": [
        {
          "internalType": "uint256",
          "name": "id",
          "type": "uint256"
        }
      ],
      "name": "exists",
      "outputs": [
        {
          "internalType": "bool",
          "name": "",
          "type": "bool"
        }
      ],
      "stateMutability": "view",
      "type": "function"
    },
    {
      "inputs": [
        {
          "internalType": "address",
          "name": "initialOwner",
          "type": "address"
        }
      ],
      "name": "initialize",
      "outputs": [],
      "stateMutability": "nonpayable",
      "type": "function"
    },
    {
      "inputs": [
        {
          "internalType": "address",
          "name": "account",
          "type": "address"
        },
        {
          "internalType": "address",
          "name": "operator",
          "type": "address"
        }
      ],
      "name": "isApprovedForAll",
      "outputs": [
        {
          "internalType": "bool",
          "name": "",
          "type": "bool"
        }
      ],
      "stateMutability": "view",
      "type": "function"
    },
    {
      "inputs": [
        {
          "internalType": "address",
          "name": "to",
          "type": "address"
        },
        {
          "internalType": "uint256",
          "name": "amount",
          "type": "uint256"
        },
        {
          "internalType": "string",
          "name": "uriValue",
          "type": "string"
        }
      ],
      "name": "mintProperty",
      "outputs": [
        {
          "internalType": "uint256",
          "name": "",
          "type": "uint256"
        }
      ],
      "stateMutability": "nonpayable",
      "type": "function"
    },
    {
      "inputs": [],
      "name": "owner",
      "outputs": [
        {
          "internalType": "address",
          "name": "",
          "type": "address"
        }
      ],
      "stateMutability": "view",
      "type": "function"
    },
    {
      "inputs": [],
      "name": "pause",
      "outputs": [],
      "stateMutability": "nonpayable",
      "type": "function"
    },
    {
      "inputs": [],
      "name": "paused",
      "outputs": [
        {
          "internalType": "bool",
          "name": "",
          "type": "bool"
        }
      ],
      "stateMutability": "view",
      "type": "function"
    },
    {
      "inputs": [],
      "name": "proxiableUUID",
      "outputs": [
        {
          "internalType": "bytes32",
          "name": "",
          "type": "bytes32"
        }
      ],
      "stateMutability": "view",
      "type": "function"
    },
    {
      "inputs": [],
      "name": "renounceOwnership",
      "outputs": [],
      "stateMutability": "nonpayable",
      "type": "function"
    },
    {
      "inputs": [
        {
          "internalType": "address",
          "name": "from",
          "type": "address"
        },
        {
          "internalType": "address",
          "name": "to",
          "type": "address"
        },
        {
          "internalType": "uint256[]",
          "name": "ids",
          "type": "uint256[]"
        },
        {
          "internalType": "uint256[]",
          "name": "amounts",
          "type": "uint256[]"
        },
        {
          "internalType": "bytes",
          "name": "data",
          "type": "bytes"
        }
      ],
      "name": "safeBatchTransferFrom",
      "outputs": [],
      "stateMutability": "nonpayable",
      "type": "function"
    },
    {
      "inputs": [
        {
          "internalType": "address",
          "name": "from",
          "type": "address"
        },
        {
          "internalType": "address",
          "name": "to",
          "type": "address"
        },
        {
          "internalType": "uint256",
          "name": "id",
          "type": "uint256"
        },
        {
          "internalType": "uint256",
          "name": "amount",
          "type": "uint256"
        },
        {
          "internalType": "bytes",
          "name": "data",
          "type": "bytes"
        }
      ],
      "name": "safeTransferFrom",
      "outputs": [],
      "stateMutability": "nonpayable",
      "type": "function"
    },
    {
      "inputs": [
        {
          "internalType": "address",
          "name": "operator",
          "type": "address"
        },
        {
          "internalType": "bool",
          "name": "approved",
          "type": "bool"
        }
      ],
      "name": "setApprovalForAll",
      "outputs": [],
      "stateMutability": "nonpayable",
      "type": "function"
    },
    {
      "inputs": [
        {
          "internalType": "uint256",
          "name": "tokenId",
          "type": "uint256"
        },
        {
          "internalType": "string",
          "name": "newuri",
          "type": "string"
        }
      ],
      "name": "setURI",
      "outputs": [],
      "stateMutability": "nonpayable",
      "type": "function"
    },
    {
      "inputs": [
        {
          "internalType": "bytes4",
          "name": "interfaceId",
          "type": "bytes4"
        }
      ],
      "name": "supportsInterface",
      "outputs": [
        {
          "internalType": "bool",
          "name": "",
          "type": "bool"
        }
      ],
      "stateMutability": "view",
      "type": "function"
    },
    {
      "inputs": [
        {
          "internalType": "uint256",
          "name": "id",
          "type": "uint256"
        }
      ],
      "name": "totalSupply",
      "outputs": [
        {
          "internalType": "uint256",
          "name": "",
          "type": "uint256"
        }
      ],
      "stateMutability": "view",
      "type": "function"
    },
    {
      "inputs": [
        {
          "internalType": "address",
          "name": "newOwner",
          "type": "address"
        }
      ],
      "name": "transferOwnership",
      "outputs": [],
      "stateMutability": "nonpayable",
      "type": "function"
    },
    {
      "inputs": [],
      "name": "unpause",
      "outputs": [],
      "stateMutability": "nonpayable",
      "type": "function"
    },
    {
      "inputs": [
        {
          "internalType": "address",
          "name": "newImplementation",
          "type": "address"
        }
      ],
      "name": "upgradeTo",
      "outputs": [],
      "stateMutability": "nonpayable",
      "type": "function"
    },
    {
      "inputs": [
        {
          "internalType": "address",
          "name": "newImplementation",
          "type": "address"
        },
        {
          "internalType": "bytes",
          "name": "data",
          "type": "bytes"
        }
      ],
      "name": "upgradeToAndCall",
      "outputs": [],
      "stateMutability": "payable",
      "type": "function"
    },
    {
      "inputs": [
        {
          "internalType": "uint256",
          "name": "tokenId",
          "type": "uint256"
        }
      ],
      "name": "uri",
      "outputs": [
        {
          "internalType": "string",
          "name": "",
          "type": "string"
        }
      ],
      "stateMutability": "view",
      "type": "function"
    }
  ],
  "bytecode": "0x60a06040523073ffffffffffffffffffffffffffffffffffffffff1660809073ffffffffffffffffffffffffffffffffffffffff168152503480156200004457600080fd5b50620000556200005b60201b60201c565b62000205565b600060019054906101000a900460ff1615620000ae576040517f08c379a0000000000000000000000000000000000000000000000000000000008152600401620000a590620001a8565b60405180910390fd5b60ff801660008054906101000a900460ff1660ff16146200011f5760ff6000806101000a81548160ff021916908360ff1602179055507f7f26b83ff96e1f2b6a682f133852f6798a09c465da95921460cefb384740249860ff604051620001169190620001e8565b60405180910390a15b565b600082825260208201905092915050565b7f496e697469616c697a61626c653a20636f6e747261637420697320696e69746960008201527f616c697a696e6700000000000000000000000000000000000000000000000000602082015250565b60006200019060278362000121565b91506200019d8262000132565b604082019050919050565b60006020820190508181036000830152620001c38162000181565b9050919050565b600060ff82169050919050565b620001e281620001ca565b82525050565b6000602082019050620001ff6000830184620001d7565b92915050565b608051614c446200023d6000396000818161090c0152818161099a01528181610bb901528181610c470152610d0b0152614c446000f3fe6080604052600436106101345760003560e01c80635c975abb116100ab578063a22cb4651161006f578063a22cb46514610404578063bd85b0391461042d578063c4d66de81461046a578063e985e9c514610493578063f242432a146104d0578063f2fde38b146104f957610134565b80635c975abb14610357578063715018a6146103825780638456cb5914610399578063862440e2146103b05780638da5cb5b146103d957610134565b80633659cfe6116100fd5780633659cfe6146102565780633f4ba83a1461027f5780634e1273f4146102965780634f1ef286146102d35780634f558e79146102ef57806352d1902d1461032c57610134565b8062fdd58e1461013957806301ffc9a7146101765780630e89341c146101b35780632eb2c2d6146101f0578063322cb8db14610219575b600080fd5b34801561014557600080fd5b50610160600480360381019061015b9190612c7d565b610522565b60405161016d9190612ccc565b60405180910390f35b34801561018257600080fd5b5061019d60048036038101906101989190612d3f565b6105eb565b6040516101aa9190612d87565b60405180910390f35b3480156101bf57600080fd5b506101da60048036038101906101d59190612da2565b6106cd565b6040516101e79190612e5f565b60405180910390f35b3480156101fc57600080fd5b506102176004803603810190610212919061307e565b6107be565b005b34801561022557600080fd5b50610240600480360381019061023b91906131ee565b61085f565b60405161024d9190612ccc565b60405180910390f35b34801561026257600080fd5b5061027d6004803603810190610278919061325d565b61090a565b005b34801561028b57600080fd5b50610294610a92565b005b3480156102a257600080fd5b506102bd60048036038101906102b8919061334d565b610aa4565b6040516102ca9190613483565b60405180910390f35b6102ed60048036038101906102e891906134a5565b610bb7565b005b3480156102fb57600080fd5b5061031660048036038101906103119190612da2565b610cf3565b6040516103239190612d87565b60405180910390f35b34801561033857600080fd5b50610341610d07565b60405161034e919061351a565b60405180910390f35b34801561036357600080fd5b5061036c610dc0565b6040516103799190612d87565b60405180910390f35b34801561038e57600080fd5b50610397610dd8565b005b3480156103a557600080fd5b506103ae610dec565b005b3480156103bc57600080fd5b506103d760048036038101906103d29190613535565b610dfe565b005b3480156103e557600080fd5b506103ee610eaf565b6040516103fb91906135a0565b60405180910390f35b34801561041057600080fd5b5061042b600480360381019061042691906135e7565b610ed9565b005b34801561043957600080fd5b50610454600480360381019061044f9190612da2565b610eef565b6040516104619190612ccc565b60405180910390f35b34801561047657600080fd5b50610491600480360381019061048c919061325d565b610f0c565b005b34801561049f57600080fd5b506104ba60048036038101906104b59190613627565b61107b565b6040516104c79190612d87565b60405180910390f35b3480156104dc57600080fd5b506104f760048036038101906104f29190613667565b61110f565b005b34801561050557600080fd5b50610520600480360381019061051b919061325d565b6111b0565b005b60008073ffffffffffffffffffffffffffffffffffffffff168373ffffffffffffffffffffffffffffffffffffffff1603610592576040517f08c379a000000000000000000000000000000000000000000000000000000000815260040161058990613770565b60405180910390fd5b6065600083815260200190815260200160002060008473ffffffffffffffffffffffffffffffffffffffff1673ffffffffffffffffffffffffffffffffffffffff16815260200190815260200160002054905092915050565b60007fd9b67a26000000000000000000000000000000000000000000000000000000007bffffffffffffffffffffffffffffffffffffffffffffffffffffffff1916827bffffffffffffffffffffffffffffffffffffffffffffffffffffffff191614806106b657507f0e89341c000000000000000000000000000000000000000000000000000000007bffffffffffffffffffffffffffffffffffffffffffffffffffffffff1916827bffffffffffffffffffffffffffffffffffffffffffffffffffffffff1916145b806106c657506106c582611233565b5b9050919050565b606060006106da83610eef565b1161071a576040517f08c379a000000000000000000000000000000000000000000000000000000000815260040161071190613802565b60405180910390fd5b6101926000838152602001908152602001600020805461073990613851565b80601f016020809104026020016040519081016040528092919081815260200182805461076590613851565b80156107b25780601f10610787576101008083540402835291602001916107b2565b820191906000526020600020905b81548152906001019060200180831161079557829003601f168201915b50505050509050919050565b6107c661129d565b73ffffffffffffffffffffffffffffffffffffffff168573ffffffffffffffffffffffffffffffffffffffff16148061080c575061080b8561080661129d565b61107b565b5b61084b576040517f08c379a0000000000000000000000000000000000000000000000000000000008152600401610842906138f4565b60405180910390fd5b61085885858585856112a5565b5050505050565b60006108696115c3565b6000610191549050610191600081548092919061088590613943565b91905055506108a585828660405180602001604052806000815250611641565b82610192600083815260200190815260200160002090816108c69190613b37565b50807f6bb7ff708619ba0610cba295a58592e0451dee2622938c8755667688daf3529b846040516108f79190612e5f565b60405180910390a2809150509392505050565b7f000000000000000000000000000000000000000000000000000000000000000073ffffffffffffffffffffffffffffffffffffffff163073ffffffffffffffffffffffffffffffffffffffff1603610998576040517f08c379a000000000000000000000000000000000000000000000000000000000815260040161098f90613c7b565b60405180910390fd5b7f000000000000000000000000000000000000000000000000000000000000000073ffffffffffffffffffffffffffffffffffffffff166109d76117f2565b73ffffffffffffffffffffffffffffffffffffffff1614610a2d576040517f08c379a0000000000000000000000000000000000000000000000000000000008152600401610a2490613d0d565b60405180910390fd5b610a3681611849565b610a8f81600067ffffffffffffffff811115610a5557610a54612e86565b5b6040519080825280601f01601f191660200182016040528015610a875781602001600182028036833780820191505090505b506000611854565b50565b610a9a6115c3565b610aa26119c2565b565b60608151835114610aea576040517f08c379a0000000000000000000000000000000000000000000000000000000008152600401610ae190613d9f565b60405180910390fd5b6000835167ffffffffffffffff811115610b0757610b06612e86565b5b604051908082528060200260200182016040528015610b355781602001602082028036833780820191505090505b50905060005b8451811015610bac57610b82858281518110610b5a57610b59613dbf565b5b6020026020010151858381518110610b7557610b74613dbf565b5b6020026020010151610522565b828281518110610b9557610b94613dbf565b5b602002602001018181525050806001019050610b3b565b508091505092915050565b7f000000000000000000000000000000000000000000000000000000000000000073ffffffffffffffffffffffffffffffffffffffff163073ffffffffffffffffffffffffffffffffffffffff1603610c45576040517f08c379a0000000000000000000000000000000000000000000000000000000008152600401610c3c90613c7b565b60405180910390fd5b7f000000000000000000000000000000000000000000000000000000000000000073ffffffffffffffffffffffffffffffffffffffff16610c846117f2565b73ffffffffffffffffffffffffffffffffffffffff1614610cda576040517f08c379a0000000000000000000000000000000000000000000000000000000008152600401610cd190613d0d565b60405180910390fd5b610ce382611849565b610cef82826001611854565b5050565b600080610cff83610eef565b119050919050565b60007f000000000000000000000000000000000000000000000000000000000000000073ffffffffffffffffffffffffffffffffffffffff163073ffffffffffffffffffffffffffffffffffffffff1614610d97576040517f08c379a0000000000000000000000000000000000000000000000000000000008152600401610d8e90613e60565b60405180910390fd5b7f360894a13ba1a3210667c828492db98dca3e2076cc3735a920a3ca505d382bbc60001b905090565b600061015f60009054906101000a900460ff16905090565b610de06115c3565b610dea6000611a26565b565b610df46115c3565b610dfc611aec565b565b610e066115c3565b6000610e1183610eef565b11610e51576040517f08c379a0000000000000000000000000000000000000000000000000000000008152600401610e4890613802565b60405180910390fd5b8061019260008481526020019081526020016000209081610e729190613b37565b50817f6bb7ff708619ba0610cba295a58592e0451dee2622938c8755667688daf3529b82604051610ea39190612e5f565b60405180910390a25050565b600060c960009054906101000a900473ffffffffffffffffffffffffffffffffffffffff16905090565b610eeb610ee461129d565b8383611b50565b5050565b600060976000838152602001908152602001600020549050919050565b60008060019054906101000a900460ff16159050808015610f3d5750600160008054906101000a900460ff1660ff16105b80610f6a5750610f4c30611cbc565b158015610f695750600160008054906101000a900460ff1660ff16145b5b610fa9576040517f08c379a0000000000000000000000000000000000000000000000000000000008152600401610fa090613ef2565b60405180910390fd5b60016000806101000a81548160ff021916908360ff1602179055508015610fe6576001600060016101000a81548160ff0219169083151502179055505b610ffe60405180602001604052806000815250611cdf565b611006611d3a565b61100e611d8b565b611016611de4565b61101e611e35565b80156110775760008060016101000a81548160ff0219169083151502179055507f7f26b83ff96e1f2b6a682f133852f6798a09c465da95921460cefb3847402498600160405161106e9190613f5a565b60405180910390a15b5050565b6000606660008473ffffffffffffffffffffffffffffffffffffffff1673ffffffffffffffffffffffffffffffffffffffff16815260200190815260200160002060008373ffffffffffffffffffffffffffffffffffffffff1673ffffffffffffffffffffffffffffffffffffffff16815260200190815260200160002060009054906101000a900460ff16905092915050565b61111761129d565b73ffffffffffffffffffffffffffffffffffffffff168573ffffffffffffffffffffffffffffffffffffffff16148061115d575061115c8561115761129d565b61107b565b5b61119c576040517f08c379a0000000000000000000000000000000000000000000000000000000008152600401611193906138f4565b60405180910390fd5b6111a98585858585611e8e565b5050505050565b6111b86115c3565b600073ffffffffffffffffffffffffffffffffffffffff168173ffffffffffffffffffffffffffffffffffffffff1603611227576040517f08c379a000000000000000000000000000000000000000000000000000000000815260040161121e90613fe7565b60405180910390fd5b61123081611a26565b50565b60007f01ffc9a7000000000000000000000000000000000000000000000000000000007bffffffffffffffffffffffffffffffffffffffffffffffffffffffff1916827bffffffffffffffffffffffffffffffffffffffffffffffffffffffff1916149050919050565b600033905090565b81518351146112e9576040517f08c379a00000000000000000000000000000000000000000000000000000000081526004016112e090614079565b60405180910390fd5b600073ffffffffffffffffffffffffffffffffffffffff168473ffffffffffffffffffffffffffffffffffffffff1603611358576040517f08c379a000000000000000000000000000000000000000000000000000000000815260040161134f9061410b565b60405180910390fd5b600061136261129d565b905061137281878787878761212c565b60005b845181101561152057600085828151811061139357611392613dbf565b5b6020026020010151905060008583815181106113b2576113b1613dbf565b5b6020026020010151905060006065600084815260200190815260200160002060008b73ffffffffffffffffffffffffffffffffffffffff1673ffffffffffffffffffffffffffffffffffffffff16815260200190815260200160002054905081811015611454576040517f08c379a000000000000000000000000000000000000000000000000000000000815260040161144b9061419d565b60405180910390fd5b8181036065600085815260200190815260200160002060008c73ffffffffffffffffffffffffffffffffffffffff1673ffffffffffffffffffffffffffffffffffffffff16815260200190815260200160002081905550816065600085815260200190815260200160002060008b73ffffffffffffffffffffffffffffffffffffffff1673ffffffffffffffffffffffffffffffffffffffff168152602001908152602001600020600082825461150b91906141bd565b92505081905550505050806001019050611375565b508473ffffffffffffffffffffffffffffffffffffffff168673ffffffffffffffffffffffffffffffffffffffff168273ffffffffffffffffffffffffffffffffffffffff167f4a39dc06d4c0dbc64b70af90fd698a233a518aa5d07e595d983b8c0526c8f7fb87876040516115979291906141f1565b60405180910390a46115ad81878787878761214a565b6115bb818787878787612152565b505050505050565b6115cb61129d565b73ffffffffffffffffffffffffffffffffffffffff166115e9610eaf565b73ffffffffffffffffffffffffffffffffffffffff161461163f576040517f08c379a000000000000000000000000000000000000000000000000000000000815260040161163690614274565b60405180910390fd5b565b600073ffffffffffffffffffffffffffffffffffffffff168473ffffffffffffffffffffffffffffffffffffffff16036116b0576040517f08c379a00000000000000000000000000000000000000000000000000000000081526004016116a790614306565b60405180910390fd5b60006116ba61129d565b905060006116c785612329565b905060006116d485612329565b90506116e58360008985858961212c565b846065600088815260200190815260200160002060008973ffffffffffffffffffffffffffffffffffffffff1673ffffffffffffffffffffffffffffffffffffffff168152602001908152602001600020600082825461174591906141bd565b925050819055508673ffffffffffffffffffffffffffffffffffffffff16600073ffffffffffffffffffffffffffffffffffffffff168473ffffffffffffffffffffffffffffffffffffffff167fc3d58168c5ae7397731d063d5bbf3d657854427343f4c083240f7aacaa2d0f6289896040516117c3929190614326565b60405180910390a46117da8360008985858961214a565b6117e9836000898989896123a3565b50505050505050565b60006118207f360894a13ba1a3210667c828492db98dca3e2076cc3735a920a3ca505d382bbc60001b61257a565b60000160009054906101000a900473ffffffffffffffffffffffffffffffffffffffff16905090565b6118516115c3565b50565b6118807f4910fdfa16fed3260ed0e7147f7cc6da11a60208b5b9406d12a635614ffd914360001b612584565b60000160009054906101000a900460ff16156118a45761189f8361258e565b6119bd565b8273ffffffffffffffffffffffffffffffffffffffff166352d1902d6040518163ffffffff1660e01b8152600401602060405180830381865afa92505050801561190c57506040513d601f19601f82011682018060405250810190611909919061437b565b60015b61194b576040517f08c379a00000000000000000000000000000000000000000000000000000000081526004016119429061441a565b60405180910390fd5b7f360894a13ba1a3210667c828492db98dca3e2076cc3735a920a3ca505d382bbc60001b81146119b0576040517f08c379a00000000000000000000000000000000000000000000000000000000081526004016119a7906144ac565b60405180910390fd5b506119bc838383612647565b5b505050565b6119ca612673565b600061015f60006101000a81548160ff0219169083151502179055507f5db9ee0a495bf2e6ff9c91a7834c1ba4fdd244a5e8aa4e537bd38aeae4b073aa611a0f61129d565b604051611a1c91906135a0565b60405180910390a1565b600060c960009054906101000a900473ffffffffffffffffffffffffffffffffffffffff1690508160c960006101000a81548173ffffffffffffffffffffffffffffffffffffffff021916908373ffffffffffffffffffffffffffffffffffffffff1602179055508173ffffffffffffffffffffffffffffffffffffffff168173ffffffffffffffffffffffffffffffffffffffff167f8be0079c531659141344cd1fd0a4f28419497f9722a3daafe3b4186f6b6457e060405160405180910390a35050565b611af46126bc565b600161015f60006101000a81548160ff0219169083151502179055507f62e78cea01bee320cd4e420270b5ea74000d11b0c9f74754ebdbfc544b05a258611b3961129d565b604051611b4691906135a0565b60405180910390a1565b8173ffffffffffffffffffffffffffffffffffffffff168373ffffffffffffffffffffffffffffffffffffffff1603611bbe576040517f08c379a0000000000000000000000000000000000000000000000000000000008152600401611bb59061453e565b60405180910390fd5b80606660008573ffffffffffffffffffffffffffffffffffffffff1673ffffffffffffffffffffffffffffffffffffffff16815260200190815260200160002060008473ffffffffffffffffffffffffffffffffffffffff1673ffffffffffffffffffffffffffffffffffffffff16815260200190815260200160002060006101000a81548160ff0219169083151502179055508173ffffffffffffffffffffffffffffffffffffffff168373ffffffffffffffffffffffffffffffffffffffff167f17307eab39ab6107e8899845ad3d59bd9653f200f220920489ca2b5937696c3183604051611caf9190612d87565b60405180910390a3505050565b6000808273ffffffffffffffffffffffffffffffffffffffff163b119050919050565b600060019054906101000a900460ff16611d2e576040517f08c379a0000000000000000000000000000000000000000000000000000000008152600401611d25906145d0565b60405180910390fd5b611d3781612706565b50565b600060019054906101000a900460ff16611d89576040517f08c379a0000000000000000000000000000000000000000000000000000000008152600401611d80906145d0565b60405180910390fd5b565b600060019054906101000a900460ff16611dda576040517f08c379a0000000000000000000000000000000000000000000000000000000008152600401611dd1906145d0565b60405180910390fd5b611de2612761565b565b600060019054906101000a900460ff16611e33576040517f08c379a0000000000000000000000000000000000000000000000000000000008152600401611e2a906145d0565b60405180910390fd5b565b600060019054906101000a900460ff16611e84576040517f08c379a0000000000000000000000000000000000000000000000000000000008152600401611e7b906145d0565b60405180910390fd5b611e8c6127c2565b565b600073ffffffffffffffffffffffffffffffffffffffff168473ffffffffffffffffffffffffffffffffffffffff1603611efd576040517f08c379a0000000000000000000000000000000000000000000000000000000008152600401611ef49061410b565b60405180910390fd5b6000611f0761129d565b90506000611f1485612329565b90506000611f2185612329565b9050611f3183898985858961212c565b60006065600088815260200190815260200160002060008a73ffffffffffffffffffffffffffffffffffffffff1673ffffffffffffffffffffffffffffffffffffffff16815260200190815260200160002054905085811015611fc9576040517f08c379a0000000000000000000000000000000000000000000000000000000008152600401611fc09061419d565b60405180910390fd5b8581036065600089815260200190815260200160002060008b73ffffffffffffffffffffffffffffffffffffffff1673ffffffffffffffffffffffffffffffffffffffff16815260200190815260200160002081905550856065600089815260200190815260200160002060008a73ffffffffffffffffffffffffffffffffffffffff1673ffffffffffffffffffffffffffffffffffffffff168152602001908152602001600020600082825461208091906141bd565b925050819055508773ffffffffffffffffffffffffffffffffffffffff168973ffffffffffffffffffffffffffffffffffffffff168573ffffffffffffffffffffffffffffffffffffffff167fc3d58168c5ae7397731d063d5bbf3d657854427343f4c083240f7aacaa2d0f628a8a6040516120fd929190614326565b60405180910390a4612113848a8a86868a61214a565b612121848a8a8a8a8a6123a3565b505050505050505050565b6121346126bc565b61214286868686868661282f565b505050505050565b505050505050565b6121718473ffffffffffffffffffffffffffffffffffffffff16611cbc565b15612321578373ffffffffffffffffffffffffffffffffffffffff1663bc197c8187878686866040518663ffffffff1660e01b81526004016121b7959493929190614645565b6020604051808303816000875af19250505080156121f357506040513d601f19601f820116820180604052508101906121f091906146c2565b60015b612298576121ff6146fc565b806308c379a00361225b575061221361471e565b8061221e575061225d565b806040517f08c379a00000000000000000000000000000000000000000000000000000000081526004016122529190612e5f565b60405180910390fd5b505b6040517f08c379a000000000000000000000000000000000000000000000000000000000815260040161228f90614820565b60405180910390fd5b63bc197c8160e01b7bffffffffffffffffffffffffffffffffffffffffffffffffffffffff1916817bffffffffffffffffffffffffffffffffffffffffffffffffffffffff19161461231f576040517f08c379a0000000000000000000000000000000000000000000000000000000008152600401612316906148b2565b60405180910390fd5b505b505050505050565b60606000600167ffffffffffffffff81111561234857612347612e86565b5b6040519080825280602002602001820160405280156123765781602001602082028036833780820191505090505b509050828160008151811061238e5761238d613dbf565b5b60200260200101818152505080915050919050565b6123c28473ffffffffffffffffffffffffffffffffffffffff16611cbc565b15612572578373ffffffffffffffffffffffffffffffffffffffff1663f23a6e6187878686866040518663ffffffff1660e01b81526004016124089594939291906148d2565b6020604051808303816000875af192505050801561244457506040513d601f19601f8201168201806040525081019061244191906146c2565b60015b6124e9576124506146fc565b806308c379a0036124ac575061246461471e565b8061246f57506124ae565b806040517f08c379a00000000000000000000000000000000000000000000000000000000081526004016124a39190612e5f565b60405180910390fd5b505b6040517f08c379a00000000000000000000000000000000000000000000000000000000081526004016124e090614820565b60405180910390fd5b63f23a6e6160e01b7bffffffffffffffffffffffffffffffffffffffffffffffffffffffff1916817bffffffffffffffffffffffffffffffffffffffffffffffffffffffff191614612570576040517f08c379a0000000000000000000000000000000000000000000000000000000008152600401612567906148b2565b60405180910390fd5b505b505050505050565b6000819050919050565b6000819050919050565b61259781611cbc565b6125d6576040517f08c379a00000000000000000000000000000000000000000000000000000000081526004016125cd9061499e565b60405180910390fd5b806126037f360894a13ba1a3210667c828492db98dca3e2076cc3735a920a3ca505d382bbc60001b61257a565b60000160006101000a81548173ffffffffffffffffffffffffffffffffffffffff021916908373ffffffffffffffffffffffffffffffffffffffff16021790555050565b612650836129f3565b60008251118061265d5750805b1561266e5761266c8383612a42565b505b505050565b61267b610dc0565b6126ba576040517f08c379a00000000000000000000000000000000000000000000000000000000081526004016126b190614a0a565b60405180910390fd5b565b6126c4610dc0565b15612704576040517f08c379a00000000000000000000000000000000000000000000000000000000081526004016126fb90614a76565b60405180910390fd5b565b600060019054906101000a900460ff16612755576040517f08c379a000000000000000000000000000000000000000000000000000000000815260040161274c906145d0565b60405180910390fd5b61275e81612a6f565b50565b600060019054906101000a900460ff166127b0576040517f08c379a00000000000000000000000000000000000000000000000000000000081526004016127a7906145d0565b60405180910390fd5b6127c06127bb61129d565b611a26565b565b600060019054906101000a900460ff16612811576040517f08c379a0000000000000000000000000000000000000000000000000000000008152600401612808906145d0565b60405180910390fd5b600061015f60006101000a81548160ff021916908315150217905550565b61283d868686868686612a82565b600073ffffffffffffffffffffffffffffffffffffffff168573ffffffffffffffffffffffffffffffffffffffff16036128e85760005b83518110156128e6578281815181106128905761288f613dbf565b5b6020026020010151609760008684815181106128af576128ae613dbf565b5b6020026020010151815260200190815260200160002060008282546128d491906141bd565b92505081905550806001019050612874565b505b600073ffffffffffffffffffffffffffffffffffffffff168473ffffffffffffffffffffffffffffffffffffffff16036129eb5760005b83518110156129e957600084828151811061293d5761293c613dbf565b5b60200260200101519050600084838151811061295c5761295b613dbf565b5b60200260200101519050600060976000848152602001908152602001600020549050818110156129c1576040517f08c379a00000000000000000000000000000000000000000000000000000000081526004016129b890614b08565b60405180910390fd5b818103609760008581526020019081526020016000208190555050505080600101905061291f565b505b505050505050565b6129fc8161258e565b8073ffffffffffffffffffffffffffffffffffffffff167fbc7cd75a20ee27fd9adebab32041f755214dbc6bffa90cc0225b39da2e5c2d3b60405160405180910390a250565b6060612a678383604051806060016040528060278152602001614be860279139612a8a565b905092915050565b8060679081612a7e9190613b37565b5050565b505050505050565b60606000808573ffffffffffffffffffffffffffffffffffffffff1685604051612ab49190614b64565b600060405180830381855af49150503d8060008114612aef576040519150601f19603f3d011682016040523d82523d6000602084013e612af4565b606091505b5091509150612b0586838387612b10565b925050509392505050565b60608315612b72576000835103612b6a57612b2a85611cbc565b612b69576040517f08c379a0000000000000000000000000000000000000000000000000000000008152600401612b6090614bc7565b60405180910390fd5b5b829050612b7d565b612b7c8383612b85565b5b949350505050565b600082511115612b985781518083602001fd5b806040517f08c379a0000000000000000000000000000000000000000000000000000000008152600401612bcc9190612e5f565b60405180910390fd5b6000604051905090565b600080fd5b600080fd5b600073ffffffffffffffffffffffffffffffffffffffff82169050919050565b6000612c1482612be9565b9050919050565b612c2481612c09565b8114612c2f57600080fd5b50565b600081359050612c4181612c1b565b92915050565b6000819050919050565b612c5a81612c47565b8114612c6557600080fd5b50565b600081359050612c7781612c51565b92915050565b60008060408385031215612c9457612c93612bdf565b5b6000612ca285828601612c32565b9250506020612cb385828601612c68565b9150509250929050565b612cc681612c47565b82525050565b6000602082019050612ce16000830184612cbd565b92915050565b60007fffffffff0000000000000000000000000000000000000000000000000000000082169050919050565b612d1c81612ce7565b8114612d2757600080fd5b50565b600081359050612d3981612d13565b92915050565b600060208284031215612d5557612d54612bdf565b5b6000612d6384828501612d2a565b91505092915050565b60008115159050919050565b612d8181612d6c565b82525050565b6000602082019050612d9c6000830184612d78565b92915050565b600060208284031215612db857612db7612bdf565b5b6000612dc684828501612c68565b91505092915050565b600081519050919050565b600082825260208201905092915050565b60005b83811015612e09578082015181840152602081019050612dee565b60008484015250505050565b6000601f19601f8301169050919050565b6000612e3182612dcf565b612e3b8185612dda565b9350612e4b818560208601612deb565b612e5481612e15565b840191505092915050565b60006020820190508181036000830152612e798184612e26565b905092915050565b600080fd5b7f4e487b7100000000000000000000000000000000000000000000000000000000600052604160045260246000fd5b612ebe82612e15565b810181811067ffffffffffffffff82111715612edd57612edc612e86565b5b80604052505050565b6000612ef0612bd5565b9050612efc8282612eb5565b919050565b600067ffffffffffffffff821115612f1c57612f1b612e86565b5b602082029050602081019050919050565b600080fd5b6000612f45612f4084612f01565b612ee6565b90508083825260208201905060208402830185811115612f6857612f67612f2d565b5b835b81811015612f915780612f7d8882612c68565b845260208401935050602081019050612f6a565b5050509392505050565b600082601f830112612fb057612faf612e81565b5b8135612fc0848260208601612f32565b91505092915050565b600080fd5b600067ffffffffffffffff821115612fe957612fe8612e86565b5b612ff282612e15565b9050602081019050919050565b82818337600083830152505050565b600061302161301c84612fce565b612ee6565b90508281526020810184848401111561303d5761303c612fc9565b5b613048848285612fff565b509392505050565b600082601f83011261306557613064612e81565b5b813561307584826020860161300e565b91505092915050565b600080600080600060a0868803121561309a57613099612bdf565b5b60006130a888828901612c32565b95505060206130b988828901612c32565b945050604086013567ffffffffffffffff8111156130da576130d9612be4565b5b6130e688828901612f9b565b935050606086013567ffffffffffffffff81111561310757613106612be4565b5b61311388828901612f9b565b925050608086013567ffffffffffffffff81111561313457613133612be4565b5b61314088828901613050565b9150509295509295909350565b600067ffffffffffffffff82111561316857613167612e86565b5b61317182612e15565b9050602081019050919050565b600061319161318c8461314d565b612ee6565b9050828152602081018484840111156131ad576131ac612fc9565b5b6131b8848285612fff565b509392505050565b600082601f8301126131d5576131d4612e81565b5b81356131e584826020860161317e565b91505092915050565b60008060006060848603121561320757613206612bdf565b5b600061321586828701612c32565b935050602061322686828701612c68565b925050604084013567ffffffffffffffff81111561324757613246612be4565b5b613253868287016131c0565b9150509250925092565b60006020828403121561327357613272612bdf565b5b600061328184828501612c32565b91505092915050565b600067ffffffffffffffff8211156132a5576132a4612e86565b5b602082029050602081019050919050565b60006132c96132c48461328a565b612ee6565b905080838252602082019050602084028301858111156132ec576132eb612f2d565b5b835b8181101561331557806133018882612c32565b8452602084019350506020810190506132ee565b5050509392505050565b600082601f83011261333457613333612e81565b5b81356133448482602086016132b6565b91505092915050565b6000806040838503121561336457613363612bdf565b5b600083013567ffffffffffffffff81111561338257613381612be4565b5b61338e8582860161331f565b925050602083013567ffffffffffffffff8111156133af576133ae612be4565b5b6133bb85828601612f9b565b9150509250929050565b600081519050919050565b600082825260208201905092915050565b6000819050602082019050919050565b6133fa81612c47565b82525050565b600061340c83836133f1565b60208301905092915050565b6000602082019050919050565b6000613430826133c5565b61343a81856133d0565b9350613445836133e1565b8060005b8381101561347657815161345d8882613400565b975061346883613418565b925050600181019050613449565b5085935050505092915050565b6000602082019050818103600083015261349d8184613425565b905092915050565b600080604083850312156134bc576134bb612bdf565b5b60006134ca85828601612c32565b925050602083013567ffffffffffffffff8111156134eb576134ea612be4565b5b6134f785828601613050565b9150509250929050565b6000819050919050565b61351481613501565b82525050565b600060208201905061352f600083018461350b565b92915050565b6000806040838503121561354c5761354b612bdf565b5b600061355a85828601612c68565b925050602083013567ffffffffffffffff81111561357b5761357a612be4565b5b613587858286016131c0565b9150509250929050565b61359a81612c09565b82525050565b60006020820190506135b56000830184613591565b92915050565b6135c481612d6c565b81146135cf57600080fd5b50565b6000813590506135e1816135bb565b92915050565b600080604083850312156135fe576135fd612bdf565b5b600061360c85828601612c32565b925050602061361d858286016135d2565b9150509250929050565b6000806040838503121561363e5761363d612bdf565b5b600061364c85828601612c32565b925050602061365d85828601612c32565b9150509250929050565b600080600080600060a0868803121561368357613682612bdf565b5b600061369188828901612c32565b95505060206136a288828901612c32565b94505060406136b388828901612c68565b93505060606136c488828901612c68565b925050608086013567ffffffffffffffff8111156136e5576136e4612be4565b5b6136f188828901613050565b9150509295509295909350565b7f455243313135353a2061646472657373207a65726f206973206e6f742061207660008201527f616c6964206f776e657200000000000000000000000000000000000000000000602082015250565b600061375a602a83612dda565b9150613765826136fe565b604082019050919050565b600060208201905081810360008301526137898161374d565b9050919050565b7f50726f7065727479546f6b656e3a20746f6b656e20646f6573206e6f7420657860008201527f6973740000000000000000000000000000000000000000000000000000000000602082015250565b60006137ec602383612dda565b91506137f782613790565b604082019050919050565b6000602082019050818103600083015261381b816137df565b9050919050565b7f4e487b7100000000000000000000000000000000000000000000000000000000600052602260045260246000fd5b6000600282049050600182168061386957607f821691505b60208210810361387c5761387b613822565b5b50919050565b7f455243313135353a2063616c6c6572206973206e6f7420746f6b656e206f776e60008201527f6572206f7220617070726f766564000000000000000000000000000000000000602082015250565b60006138de602e83612dda565b91506138e982613882565b604082019050919050565b6000602082019050818103600083015261390d816138d1565b9050919050565b7f4e487b7100000000000000000000000000000000000000000000000000000000600052601160045260246000fd5b600061394e82612c47565b91507fffffffffffffffffffffffffffffffffffffffffffffffffffffffffffffffff82036139805761397f613914565b5b600182019050919050565b60008190508160005260206000209050919050565b60006020601f8301049050919050565b600082821b905092915050565b6000600883026139ed7fffffffffffffffffffffffffffffffffffffffffffffffffffffffffffffffff826139b0565b6139f786836139b0565b95508019841693508086168417925050509392505050565b6000819050919050565b6000613a34613a2f613a2a84612c47565b613a0f565b612c47565b9050919050565b6000819050919050565b613a4e83613a19565b613a62613a5a82613a3b565b8484546139bd565b825550505050565b600090565b613a77613a6a565b613a82818484613a45565b505050565b5b81811015613aa657613a9b600082613a6f565b600181019050613a88565b5050565b601f821115613aeb57613abc8161398b565b613ac5846139a0565b81016020851015613ad4578190505b613ae8613ae0856139a0565b830182613a87565b50505b505050565b600082821c905092915050565b6000613b0e60001984600802613af0565b1980831691505092915050565b6000613b278383613afd565b9150826002028217905092915050565b613b4082612dcf565b67ffffffffffffffff811115613b5957613b58612e86565b5b613b638254613851565b613b6e828285613aaa565b600060209050601f831160018114613ba15760008415613b8f578287015190505b613b998582613b1b565b865550613c01565b601f198416613baf8661398b565b60005b82811015613bd757848901518255600182019150602085019450602081019050613bb2565b86831015613bf45784890151613bf0601f891682613afd565b8355505b6001600288020188555050505b505050505050565b7f46756e6374696f6e206d7573742062652063616c6c6564207468726f7567682060008201527f64656c656761746563616c6c0000000000000000000000000000000000000000602082015250565b6000613c65602c83612dda565b9150613c7082613c09565b604082019050919050565b60006020820190508181036000830152613c9481613c58565b9050919050565b7f46756e6374696f6e206d7573742062652063616c6c6564207468726f7567682060008201527f6163746976652070726f78790000000000000000000000000000000000000000602082015250565b6000613cf7602c83612dda565b9150613d0282613c9b565b604082019050919050565b60006020820190508181036000830152613d2681613cea565b9050919050565b7f455243313135353a206163636f756e747320616e6420696473206c656e67746860008201527f206d69736d617463680000000000000000000000000000000000000000000000602082015250565b6000613d89602983612dda565b9150613d9482613d2d565b604082019050919050565b60006020820190508181036000830152613db881613d7c565b9050919050565b7f4e487b7100000000000000000000000000000000000000000000000000000000600052603260045260246000fd5b7f555550535570677261646561626c653a206d757374206e6f742062652063616c60008201527f6c6564207468726f7567682064656c656761746563616c6c0000000000000000602082015250565b6000613e4a603883612dda565b9150613e5582613dee565b604082019050919050565b60006020820190508181036000830152613e7981613e3d565b9050919050565b7f496e697469616c697a61626c653a20636f6e747261637420697320616c72656160008201527f647920696e697469616c697a6564000000000000000000000000000000000000602082015250565b6000613edc602e83612dda565b9150613ee782613e80565b604082019050919050565b60006020820190508181036000830152613f0b81613ecf565b9050919050565b6000819050919050565b600060ff82169050919050565b6000613f44613f3f613f3a84613f12565b613a0f565b613f1c565b9050919050565b613f5481613f29565b82525050565b6000602082019050613f6f6000830184613f4b565b92915050565b7f4f776e61626c653a206e6577206f776e657220697320746865207a65726f206160008201527f6464726573730000000000000000000000000000000000000000000000000000602082015250565b6000613fd1602683612dda565b9150613fdc82613f75565b604082019050919050565b6000602082019050818103600083015261400081613fc4565b9050919050565b7f455243313135353a2069647320616e6420616d6f756e7473206c656e6774682060008201527f6d69736d61746368000000000000000000000000000000000000000000000000602082015250565b6000614063602883612dda565b915061406e82614007565b604082019050919050565b6000602082019050818103600083015261409281614056565b9050919050565b7f455243313135353a207472616e7366657220746f20746865207a65726f20616460008201527f6472657373000000000000000000000000000000000000000000000000000000602082015250565b60006140f5602583612dda565b915061410082614099565b604082019050919050565b60006020820190508181036000830152614124816140e8565b9050919050565b7f455243313135353a20696e73756666696369656e742062616c616e636520666f60008201527f72207472616e7366657200000000000000000000000000000000000000000000602082015250565b6000614187602a83612dda565b91506141928261412b565b604082019050919050565b600060208201905081810360008301526141b68161417a565b9050919050565b60006141c882612c47565b91506141d383612c47565b92508282019050808211156141eb576141ea613914565b5b92915050565b6000604082019050818103600083015261420b8185613425565b9050818103602083015261421f8184613425565b90509392505050565b7f4f776e61626c653a2063616c6c6572206973206e6f7420746865206f776e6572600082015250565b600061425e602083612dda565b915061426982614228565b602082019050919050565b6000602082019050818103600083015261428d81614251565b9050919050565b7f455243313135353a206d696e7420746f20746865207a65726f2061646472657360008201527f7300000000000000000000000000000000000000000000000000000000000000602082015250565b60006142f0602183612dda565b91506142fb82614294565b604082019050919050565b6000602082019050818103600083015261431f816142e3565b9050919050565b600060408201905061433b6000830185612cbd565b6143486020830184612cbd565b9392505050565b61435881613501565b811461436357600080fd5b50565b6000815190506143758161434f565b92915050565b60006020828403121561439157614390612bdf565b5b600061439f84828501614366565b91505092915050565b7f45524331393637557067726164653a206e657720696d706c656d656e7461746960008201527f6f6e206973206e6f742055555053000000000000000000000000000000000000602082015250565b6000614404602e83612dda565b915061440f826143a8565b604082019050919050565b60006020820190508181036000830152614433816143f7565b9050919050565b7f45524331393637557067726164653a20756e737570706f727465642070726f7860008201527f6961626c65555549440000000000000000000000000000000000000000000000602082015250565b6000614496602983612dda565b91506144a18261443a565b604082019050919050565b600060208201905081810360008301526144c581614489565b9050919050565b7f455243313135353a2073657474696e6720617070726f76616c2073746174757360008201527f20666f722073656c660000000000000000000000000000000000000000000000602082015250565b6000614528602983612dda565b9150614533826144cc565b604082019050919050565b600060208201905081810360008301526145578161451b565b9050919050565b7f496e697469616c697a61626c653a20636f6e7472616374206973206e6f74206960008201527f6e697469616c697a696e67000000000000000000000000000000000000000000602082015250565b60006145ba602b83612dda565b91506145c58261455e565b604082019050919050565b600060208201905081810360008301526145e9816145ad565b9050919050565b600081519050919050565b600082825260208201905092915050565b6000614617826145f0565b61462181856145fb565b9350614631818560208601612deb565b61463a81612e15565b840191505092915050565b600060a08201905061465a6000830188613591565b6146676020830187613591565b81810360408301526146798186613425565b9050818103606083015261468d8185613425565b905081810360808301526146a1818461460c565b90509695505050505050565b6000815190506146bc81612d13565b92915050565b6000602082840312156146d8576146d7612bdf565b5b60006146e6848285016146ad565b91505092915050565b60008160e01c9050919050565b600060033d111561471b5760046000803e6147186000516146ef565b90505b90565b600060443d106147ab57614730612bd5565b60043d036004823e80513d602482011167ffffffffffffffff821117156147585750506147ab565b808201805167ffffffffffffffff81111561477657505050506147ab565b80602083010160043d0385018111156147935750505050506147ab565b6147a282602001850186612eb5565b82955050505050505b90565b7f455243313135353a207472616e7366657220746f206e6f6e2d4552433131353560008201527f526563656976657220696d706c656d656e746572000000000000000000000000602082015250565b600061480a603483612dda565b9150614815826147ae565b604082019050919050565b60006020820190508181036000830152614839816147fd565b9050919050565b7f455243313135353a204552433131353552656365697665722072656a6563746560008201527f6420746f6b656e73000000000000000000000000000000000000000000000000602082015250565b600061489c602883612dda565b91506148a782614840565b604082019050919050565b600060208201905081810360008301526148cb8161488f565b9050919050565b600060a0820190506148e76000830188613591565b6148f46020830187613591565b6149016040830186612cbd565b61490e6060830185612cbd565b8181036080830152614920818461460c565b90509695505050505050565b7f455243313936373a206e657720696d706c656d656e746174696f6e206973206e60008201527f6f74206120636f6e747261637400000000000000000000000000000000000000602082015250565b6000614988602d83612dda565b91506149938261492c565b604082019050919050565b600060208201905081810360008301526149b78161497b565b9050919050565b7f5061757361626c653a206e6f7420706175736564000000000000000000000000600082015250565b60006149f4601483612dda565b91506149ff826149be565b602082019050919050565b60006020820190508181036000830152614a23816149e7565b9050919050565b7f5061757361626c653a2070617573656400000000000000000000000000000000600082015250565b6000614a60601083612dda565b9150614a6b82614a2a565b602082019050919050565b60006020820190508181036000830152614a8f81614a53565b9050919050565b7f455243313135353a206275726e20616d6f756e74206578636565647320746f7460008201527f616c537570706c79000000000000000000000000000000000000000000000000602082015250565b6000614af2602883612dda565b9150614afd82614a96565b604082019050919050565b60006020820190508181036000830152614b2181614ae5565b9050919050565b600081905092915050565b6000614b3e826145f0565b614b488185614b28565b9350614b58818560208601612deb565b80840191505092915050565b6000614b708284614b33565b915081905092915050565b7f416464726573733a2063616c6c20746f206e6f6e2d636f6e7472616374000000600082015250565b6000614bb1601d83612dda565b9150614bbc82614b7b565b602082019050919050565b60006020820190508181036000830152614be081614ba4565b905091905056fe416464726573733a206c6f772d6c6576656c2064656c65676174652063616c6c206661696c6564a2646970667358221220c28e031e2775389aa7e73602f37b6117c72be2bb7fcaa36efe7dfd332611693b64736f6c63430008180033",
  "linkReferences": {},
  "deployedLinkReferences": {}
}